{
  "abi": [
    {
      "inputs": [],
      "stateMutability": "nonpayable",
      "type": "constructor"
    },
    {
      "anonymous": false,
      "inputs": [
        {
          "indexed": true,
          "internalType": "address",
          "name": "owner",
          "type": "address"
        },
        {
          "indexed": true,
          "internalType": "address",
          "name": "approved",
          "type": "address"
        },
        {
          "indexed": true,
          "internalType": "uint256",
          "name": "tokenId",
          "type": "uint256"
        }
      ],
      "name": "Approval",
      "type": "event"
    },
    {
      "anonymous": false,
      "inputs": [
        {
          "indexed": true,
          "internalType": "address",
          "name": "owner",
          "type": "address"
        },
        {
          "indexed": true,
          "internalType": "address",
          "name": "operator",
          "type": "address"
        },
        {
          "indexed": false,
          "internalType": "bool",
          "name": "approved",
          "type": "bool"
        }
      ],
      "name": "ApprovalForAll",
      "type": "event"
    },
    {
      "anonymous": false,
      "inputs": [
        {
          "indexed": false,
          "internalType": "uint256",
          "name": "happiness",
          "type": "uint256"
        },
        {
          "indexed": false,
          "internalType": "uint256",
          "name": "hunger",
          "type": "uint256"
        },
        {
          "indexed": false,
          "internalType": "uint256",
          "name": "enrichment",
          "type": "uint256"
        },
        {
          "indexed": false,
          "internalType": "uint256",
          "name": "checked",
          "type": "uint256"
        },
        {
          "indexed": false,
          "internalType": "string",
          "name": "uri",
          "type": "string"
        },
        {
          "indexed": false,
          "internalType": "uint256",
          "name": "index",
          "type": "uint256"
        }
      ],
      "name": "EmojiUpdated",
      "type": "event"
    },
    {
      "anonymous": false,
      "inputs": [
        {
          "indexed": true,
          "internalType": "address",
          "name": "from",
          "type": "address"
        },
        {
          "indexed": true,
          "internalType": "address",
          "name": "to",
          "type": "address"
        },
        {
          "indexed": true,
          "internalType": "uint256",
          "name": "tokenId",
          "type": "uint256"
        }
      ],
      "name": "Transfer",
      "type": "event"
    },
    {
      "inputs": [
        {
          "internalType": "address",
          "name": "to",
          "type": "address"
        },
        {
          "internalType": "uint256",
          "name": "tokenId",
          "type": "uint256"
        }
      ],
      "name": "approve",
      "outputs": [],
      "stateMutability": "nonpayable",
      "type": "function"
    },
    {
      "inputs": [
        {
          "internalType": "address",
          "name": "owner",
          "type": "address"
        }
      ],
      "name": "balanceOf",
      "outputs": [
        {
          "internalType": "uint256",
          "name": "",
          "type": "uint256"
        }
      ],
      "stateMutability": "view",
      "type": "function"
    },
    {
      "inputs": [
        {
          "internalType": "bytes",
          "name": "",
          "type": "bytes"
        }
      ],
      "name": "checkUpkeep",
      "outputs": [
        {
          "internalType": "bool",
          "name": "upkeepNeeded",
          "type": "bool"
        },
        {
          "internalType": "bytes",
          "name": "",
          "type": "bytes"
        }
      ],
      "stateMutability": "view",
      "type": "function"
    },
    {
      "inputs": [],
      "name": "feed",
      "outputs": [],
      "stateMutability": "nonpayable",
      "type": "function"
    },
    {
      "inputs": [
        {
          "internalType": "uint256",
          "name": "tokenId",
          "type": "uint256"
        }
      ],
      "name": "getApproved",
      "outputs": [
        {
          "internalType": "address",
          "name": "",
          "type": "address"
        }
      ],
      "stateMutability": "view",
      "type": "function"
    },
    {
      "inputs": [
        {
          "internalType": "uint256",
          "name": "",
          "type": "uint256"
        }
      ],
      "name": "gotchiHolderAttributes",
      "outputs": [
        {
          "internalType": "uint256",
          "name": "gotchiIndex",
          "type": "uint256"
        },
        {
          "internalType": "string",
          "name": "imageURI",
          "type": "string"
        },
        {
          "internalType": "uint256",
          "name": "happiness",
          "type": "uint256"
        },
        {
          "internalType": "uint256",
          "name": "hunger",
          "type": "uint256"
        },
        {
          "internalType": "uint256",
          "name": "enrichment",
          "type": "uint256"
        },
        {
          "internalType": "uint256",
          "name": "lastChecked",
          "type": "uint256"
        }
      ],
      "stateMutability": "view",
      "type": "function"
    },
    {
      "inputs": [
        {
          "internalType": "address",
          "name": "",
          "type": "address"
        }
      ],
      "name": "gotchiHolders",
      "outputs": [
        {
          "internalType": "uint256",
          "name": "",
          "type": "uint256"
        }
      ],
      "stateMutability": "view",
      "type": "function"
    },
    {
      "inputs": [
        {
          "internalType": "uint256",
          "name": "_tokenId",
          "type": "uint256"
        }
      ],
      "name": "gotchiStats",
      "outputs": [
        {
          "internalType": "uint256",
          "name": "",
          "type": "uint256"
        },
        {
          "internalType": "uint256",
          "name": "",
          "type": "uint256"
        },
        {
          "internalType": "uint256",
          "name": "",
          "type": "uint256"
        },
        {
          "internalType": "uint256",
          "name": "",
          "type": "uint256"
        },
        {
          "internalType": "string",
          "name": "",
          "type": "string"
        }
      ],
      "stateMutability": "view",
      "type": "function"
    },
    {
      "inputs": [
        {
          "internalType": "address",
          "name": "owner",
          "type": "address"
        },
        {
          "internalType": "address",
          "name": "operator",
          "type": "address"
        }
      ],
      "name": "isApprovedForAll",
      "outputs": [
        {
          "internalType": "bool",
          "name": "",
          "type": "bool"
        }
      ],
      "stateMutability": "view",
      "type": "function"
    },
    {
      "inputs": [],
      "name": "myGotchi",
      "outputs": [
        {
          "internalType": "uint256",
          "name": "",
          "type": "uint256"
        },
        {
          "internalType": "uint256",
          "name": "",
          "type": "uint256"
        },
        {
          "internalType": "uint256",
          "name": "",
          "type": "uint256"
        },
        {
          "internalType": "uint256",
          "name": "",
          "type": "uint256"
        },
        {
          "internalType": "string",
          "name": "",
          "type": "string"
        }
      ],
      "stateMutability": "view",
      "type": "function"
    },
    {
      "inputs": [],
      "name": "name",
      "outputs": [
        {
          "internalType": "string",
          "name": "",
          "type": "string"
        }
      ],
      "stateMutability": "view",
      "type": "function"
    },
    {
      "inputs": [
        {
          "internalType": "uint256",
          "name": "tokenId",
          "type": "uint256"
        }
      ],
      "name": "ownerOf",
      "outputs": [
        {
          "internalType": "address",
          "name": "",
          "type": "address"
        }
      ],
      "stateMutability": "view",
      "type": "function"
    },
    {
      "inputs": [
        {
          "internalType": "uint256",
          "name": "_tokenId",
          "type": "uint256"
        }
      ],
      "name": "passTime",
      "outputs": [],
      "stateMutability": "nonpayable",
      "type": "function"
    },
    {
      "inputs": [
        {
          "internalType": "bytes",
          "name": "",
          "type": "bytes"
        }
      ],
      "name": "performUpkeep",
      "outputs": [],
      "stateMutability": "nonpayable",
      "type": "function"
    },
    {
      "inputs": [],
      "name": "play",
      "outputs": [],
      "stateMutability": "nonpayable",
      "type": "function"
    },
    {
      "inputs": [
        {
          "internalType": "address",
          "name": "to",
          "type": "address"
        }
      ],
      "name": "safeMint",
      "outputs": [],
      "stateMutability": "nonpayable",
      "type": "function"
    },
    {
      "inputs": [
        {
          "internalType": "address",
          "name": "from",
          "type": "address"
        },
        {
          "internalType": "address",
          "name": "to",
          "type": "address"
        },
        {
          "internalType": "uint256",
          "name": "tokenId",
          "type": "uint256"
        }
      ],
      "name": "safeTransferFrom",
      "outputs": [],
      "stateMutability": "nonpayable",
      "type": "function"
    },
    {
      "inputs": [
        {
          "internalType": "address",
          "name": "from",
          "type": "address"
        },
        {
          "internalType": "address",
          "name": "to",
          "type": "address"
        },
        {
          "internalType": "uint256",
          "name": "tokenId",
          "type": "uint256"
        },
        {
          "internalType": "bytes",
          "name": "_data",
          "type": "bytes"
        }
      ],
      "name": "safeTransferFrom",
      "outputs": [],
      "stateMutability": "nonpayable",
      "type": "function"
    },
    {
      "inputs": [
        {
          "internalType": "address",
          "name": "operator",
          "type": "address"
        },
        {
          "internalType": "bool",
          "name": "approved",
          "type": "bool"
        }
      ],
      "name": "setApprovalForAll",
      "outputs": [],
      "stateMutability": "nonpayable",
      "type": "function"
    },
    {
      "inputs": [
        {
          "internalType": "bytes4",
          "name": "interfaceId",
          "type": "bytes4"
        }
      ],
      "name": "supportsInterface",
      "outputs": [
        {
          "internalType": "bool",
          "name": "",
          "type": "bool"
        }
      ],
      "stateMutability": "view",
      "type": "function"
    },
    {
      "inputs": [],
      "name": "symbol",
      "outputs": [
        {
          "internalType": "string",
          "name": "",
          "type": "string"
        }
      ],
      "stateMutability": "view",
      "type": "function"
    },
    {
      "inputs": [
        {
          "internalType": "uint256",
          "name": "_tokenId",
          "type": "uint256"
        }
      ],
      "name": "tokenURI",
      "outputs": [
        {
          "internalType": "string",
          "name": "",
          "type": "string"
        }
      ],
      "stateMutability": "view",
      "type": "function"
    },
    {
      "inputs": [
        {
          "internalType": "address",
          "name": "from",
          "type": "address"
        },
        {
          "internalType": "address",
          "name": "to",
          "type": "address"
        },
        {
          "internalType": "uint256",
          "name": "tokenId",
          "type": "uint256"
        }
      ],
      "name": "transferFrom",
      "outputs": [],
      "stateMutability": "nonpayable",
      "type": "function"
    }
  ],
  "bytecode": {
    "object": "0x610d00604052610c4d608081815290620026c660a03980516200002b91600791602090910190620001e0565b506040805160e081018252601560a082018181527f6b7154777664475634644434384c334e325a7a343d000000000000000000000060c08401528252825180840184528181527f596754777664475634644434384c334e325a7a343d000000000000000000000060208281019190915280840191909152835180850185528281527f596b44777664475634644434384c334e325a7a343d00000000000000000000008183015283850152835180850185528281527f596f54777664475634644434384c334e325a7a343d000000000000000000000081830152606084015283518085019094529083527f536744777664475634644434384c334e325a7a343d0000000000000000000000908301526080810191909152620001519060089060056200026f565b50603c600c553480156200016457600080fd5b50604080518082018252600b81526a456d6f6a69476f7463686960a81b602080830191825283518085019094526011845270165bdd5c8813db8810da185a5b8814195d607a1b908401528151919291620001c191600091620001e0565b508051620001d7906001906020840190620001e0565b50505062000386565b828054620001ee9062000349565b90600052602060002090601f0160209004810192826200021257600085556200025d565b82601f106200022d57805160ff19168380011785556200025d565b828001600101855582156200025d579182015b828111156200025d57825182559160200191906001019062000240565b506200026b929150620002cf565b5090565b828054828255906000526020600020908101928215620002c1579160200282015b82811115620002c15782518051620002b0918491602090910190620001e0565b509160200191906001019062000290565b506200026b929150620002e6565b5b808211156200026b5760008155600101620002d0565b808211156200026b576000620002fd828262000307565b50600101620002e6565b508054620003159062000349565b6000825580601f1062000326575050565b601f016020900490600052602060002090810190620003469190620002cf565b50565b600181811c908216806200035e57607f821691505b602082108114156200038057634e487b7160e01b600052602260045260246000fd5b50919050565b61233080620003966000396000f3fe608060405234801561001057600080fd5b506004361061014d5760003560e01c80636e04ff0d116100c3578063b6fcf8d21161007c578063b6fcf8d2146102d2578063b88d4fde146102f2578063bee437ed14610305578063c87b56dd1461030d578063e985e9c514610320578063ee66372f1461035c57600080fd5b80636e04ff0d1461025a57806370a082311461027b57806393e84cd91461029c57806395d89b41146102a4578063a22cb465146102ac578063b09d662a146102bf57600080fd5b8063341476451161011557806334147645146101e257806337a7b7d81461020657806340d097c31461020e57806342842e0e146102215780634585e33b146102345780636352211e1461024757600080fd5b806301ffc9a71461015257806306fdde031461017a578063081812fc1461018f578063095ea7b3146101ba57806323b872dd146101cf575b600080fd5b610165610160366004611a6a565b610381565b60405190151581526020015b60405180910390f35b6101826103d3565b6040516101719190611ae6565b6101a261019d366004611af9565b610465565b6040516001600160a01b039091168152602001610171565b6101cd6101c8366004611b2e565b6104ff565b005b6101cd6101dd366004611b58565b610615565b6101f56101f0366004611af9565b610646565b604051610171959493929190611b94565b6101cd61071d565b6101cd61021c366004611bca565b610788565b6101cd61022f366004611b58565b610890565b6101cd610242366004611be5565b6108ab565b6101a2610255366004611af9565b61094b565b61026d610268366004611be5565b6109c2565b604051610171929190611c57565b61028e610289366004611bca565b610a35565b604051908152602001610171565b6101cd610abb565b610182610af4565b6101cd6102ba366004611c72565b610b03565b6101cd6102cd366004611af9565b610b12565b61028e6102e0366004611bca565b600b6020526000908152604090205481565b6101cd610300366004611cc4565b610b7f565b6101f5610bb7565b61018261031b366004611af9565b610bea565b61016561032e366004611da0565b6001600160a01b03918216600090815260056020908152604080832093909416825291909152205460ff1690565b61036f61036a366004611af9565b610d5b565b60405161017196959493929190611dd3565b60006001600160e01b031982166380ac58cd60e01b14806103b257506001600160e01b03198216635b5e139f60e01b145b806103cd57506301ffc9a760e01b6001600160e01b03198316145b92915050565b6060600080546103e290611e11565b80601f016020809104026020016040519081016040528092919081815260200182805461040e90611e11565b801561045b5780601f106104305761010080835404028352916020019161045b565b820191906000526020600020905b81548152906001019060200180831161043e57829003601f168201915b5050505050905090565b6000818152600260205260408120546001600160a01b03166104e35760405162461bcd60e51b815260206004820152602c60248201527f4552433732313a20617070726f76656420717565727920666f72206e6f6e657860448201526b34b9ba32b73a103a37b5b2b760a11b60648201526084015b60405180910390fd5b506000908152600460205260409020546001600160a01b031690565b600061050a8261094b565b9050806001600160a01b0316836001600160a01b031614156105785760405162461bcd60e51b815260206004820152602160248201527f4552433732313a20617070726f76616c20746f2063757272656e74206f776e656044820152603960f91b60648201526084016104da565b336001600160a01b03821614806105945750610594813361032e565b6106065760405162461bcd60e51b815260206004820152603860248201527f4552433732313a20617070726f76652063616c6c6572206973206e6f74206f7760448201527f6e6572206e6f7220617070726f76656420666f7220616c6c000000000000000060648201526084016104da565b6106108383610e18565b505050565b61061f3382610e86565b61063b5760405162461bcd60e51b81526004016104da90611e4c565b610610838383610f7d565b6000818152600a6020526040812060028101546003820154600483015460058401546001909401805486958695869560609591949093919291819061068a90611e11565b80601f01602080910402602001604051908101604052809291908181526020018280546106b690611e11565b80156107035780601f106106d857610100808354040283529160200191610703565b820191906000526020600020905b8154815290600101906020018083116106e657829003601f168201915b505050505090509450945094509450945091939590929450565b336000908152600b6020908152604080832054808452600a9092529091206064600382018190556004909101546002916107579190611eb3565b6107619190611ee1565b6000828152600a602052604090206002015561077c81611119565b6107858161142e565b50565b600061079360095490565b90506107a3600980546001019055565b6107ad8282611494565b6000600760086000815481106107c5576107c5611ef5565b906000526020600020016040516020016107e0929190611f7a565b60408051601f1981840301815260c083018252848352602083810182815260648585018190526060860181905260808601524260a08601526000878152600a835293909320845181559251805192955061084392600185019291909101906119bb565b506040828101516002830155606083015160038301556080830151600483015560a090920151600590910155336000908152600b602052208290556106108261088b81610bea565b6114ae565b61061083838360405180602001604052806000815250610b7f565b60008052600a6020527f13da86008ba1c6922daee3e07db95305ef49ebced9f5467a0b8613fcc6b343e8547f13da86008ba1c6922daee3e07db95305ef49ebced9f5467a0b8613fcc6b343e554158015906109105750600c5461090e8242611f8f565b115b15610610576000808052600a602052427f13da86008ba1c6922daee3e07db95305ef49ebced9f5467a0b8613fcc6b343e85561061090610b12565b6000818152600260205260408120546001600160a01b0316806103cd5760405162461bcd60e51b815260206004820152602960248201527f4552433732313a206f776e657220717565727920666f72206e6f6e657869737460448201526832b73a103a37b5b2b760b91b60648201526084016104da565b6000808052600a6020527f13da86008ba1c6922daee3e07db95305ef49ebced9f5467a0b8613fcc6b343e8547f13da86008ba1c6922daee3e07db95305ef49ebced9f5467a0b8613fcc6b343e5546060919015801590610a2b5750603c610a298242611f8f565b115b9250509250929050565b60006001600160a01b038216610a9f5760405162461bcd60e51b815260206004820152602960248201527f4552433732313a2061646472657373207a65726f206973206e6f7420612076616044820152683634b21037bbb732b960b91b60648201526084016104da565b506001600160a01b031660009081526003602052604090205490565b336000908152600b6020908152604080832054808452600a90925290912060646004820181905560039091015460029161075791611eb3565b6060600180546103e290611e11565b610b0e338383611548565b5050565b6000818152600a6020819052604090912060030154610b319190611f8f565b6000828152600a602081905260409091206003810192909255600490910154610b5a9190611f8f565b6000828152600a60205260409020600481018290556003015460029161075791611eb3565b610b893383610e86565b610ba55760405162461bcd60e51b81526004016104da90611e4c565b610bb184848484611617565b50505050565b336000908152600b6020526040812054819081908190606090610bd990610646565b945094509450945094509091929394565b6000818152600a60209081526040808320815160c08101909252805482526001810180546060959484019190610c1f90611e11565b80601f0160208091040260200160405190810160405280929190818152602001828054610c4b90611e11565b8015610c985780601f10610c6d57610100808354040283529160200191610c98565b820191906000526020600020905b815481529060010190602001808311610c7b57829003601f168201915b5050505050815260200160028201548152602001600382015481526020016004820154815260200160058201548152505090506000610cda826040015161164a565b90506000610ceb836060015161164a565b90506000610cfc846080015161164a565b905060008460200151838386604051602001610d1b9493929190611fc2565b6040516020818303038152906040529050600081604051602001610d3f919061215c565b60408051601f1981840301815291905298975050505050505050565b600a6020526000908152604090208054600182018054919291610d7d90611e11565b80601f0160208091040260200160405190810160405280929190818152602001828054610da990611e11565b8015610df65780601f10610dcb57610100808354040283529160200191610df6565b820191906000526020600020905b815481529060010190602001808311610dd957829003601f168201915b5050505050908060020154908060030154908060040154908060050154905086565b600081815260046020526040902080546001600160a01b0319166001600160a01b0384169081179091558190610e4d8261094b565b6001600160a01b03167f8c5be1e5ebec7d5bd14f71427d1e84f3dd0314c0f7b2291e5b200ac8c7c3b92560405160405180910390a45050565b6000818152600260205260408120546001600160a01b0316610eff5760405162461bcd60e51b815260206004820152602c60248201527f4552433732313a206f70657261746f7220717565727920666f72206e6f6e657860448201526b34b9ba32b73a103a37b5b2b760a11b60648201526084016104da565b6000610f0a8361094b565b9050806001600160a01b0316846001600160a01b03161480610f5157506001600160a01b0380821660009081526005602090815260408083209388168352929052205460ff165b80610f755750836001600160a01b0316610f6a84610465565b6001600160a01b0316145b949350505050565b826001600160a01b0316610f908261094b565b6001600160a01b031614610ff45760405162461bcd60e51b815260206004820152602560248201527f4552433732313a207472616e736665722066726f6d20696e636f72726563742060448201526437bbb732b960d91b60648201526084016104da565b6001600160a01b0382166110565760405162461bcd60e51b8152602060048201526024808201527f4552433732313a207472616e7366657220746f20746865207a65726f206164646044820152637265737360e01b60648201526084016104da565b611061600082610e18565b6001600160a01b038316600090815260036020526040812080546001929061108a908490611f8f565b90915550506001600160a01b03821660009081526003602052604081208054600192906110b8908490611eb3565b909155505060008181526002602052604080822080546001600160a01b0319166001600160a01b0386811691821790925591518493918716917fddf252ad1be2c89b69c2b068fc378daa952ba7f163c4a11628f55a4df523b3ef91a4505050565b6000600860008154811061112f5761112f611ef5565b90600052602060002001805461114490611e11565b80601f016020809104026020016040519081016040528092919081815260200182805461117090611e11565b80156111bd5780601f10611192576101008083540402835291602001916111bd565b820191906000526020600020905b8154815290600101906020018083116111a057829003601f168201915b5050506000858152600a602052604090206002015492935050506064141561128d5760086000815481106111f3576111f3611ef5565b90600052602060002001805461120890611e11565b80601f016020809104026020016040519081016040528092919081815260200182805461123490611e11565b80156112815780601f1061125657610100808354040283529160200191611281565b820191906000526020600020905b81548152906001019060200180831161126457829003601f168201915b505050505090506113d4565b6000828152600a6020526040902060020154604210156112bb5760086001815481106111f3576111f3611ef5565b6000828152600a6020526040902060020154602110156112e95760086002815481106111f3576111f3611ef5565b6000828152600a6020526040902060020154156113145760086003815481106111f3576111f3611ef5565b6000828152600a60205260409020600201546113d457600860048154811061133e5761133e611ef5565b90600052602060002001805461135390611e11565b80601f016020809104026020016040519081016040528092919081815260200182805461137f90611e11565b80156113cc5780601f106113a1576101008083540402835291602001916113cc565b820191906000526020600020905b8154815290600101906020018083116113af57829003601f168201915b505050505090505b60006007826040516020016113ea929190612178565b60408051601f198184030181529181526000858152600a60209081529190208251929350611420926001909101918401906119bb565b506106108361088b85610bea565b6000818152600a602052604090819020600281015460038201546004830154600584015494517ff1aaf53d815d61c85eae2a4774cfc7c4d201982835ea878954a62465535b3a7795611489959091600190910190889061219d565b60405180910390a150565b610b0e828260405180602001604052806000815250611748565b6000828152600260205260409020546001600160a01b03166115295760405162461bcd60e51b815260206004820152602e60248201527f45524337323155524953746f726167653a2055524920736574206f66206e6f6e60448201526d32bc34b9ba32b73a103a37b5b2b760911b60648201526084016104da565b60008281526006602090815260409091208251610610928401906119bb565b816001600160a01b0316836001600160a01b031614156115aa5760405162461bcd60e51b815260206004820152601960248201527f4552433732313a20617070726f766520746f2063616c6c65720000000000000060448201526064016104da565b6001600160a01b03838116600081815260056020908152604080832094871680845294825291829020805460ff191686151590811790915591519182527f17307eab39ab6107e8899845ad3d59bd9653f200f220920489ca2b5937696c31910160405180910390a3505050565b611622848484610f7d565b61162e8484848461177b565b610bb15760405162461bcd60e51b81526004016104da90612248565b60608161166e5750506040805180820190915260018152600360fc1b602082015290565b8160005b811561169857806116828161229a565b91506116919050600a83611ee1565b9150611672565b60008167ffffffffffffffff8111156116b3576116b3611cae565b6040519080825280601f01601f1916602001820160405280156116dd576020820181803683370190505b5090505b8415610f75576116f2600183611f8f565b91506116ff600a866122b5565b61170a906030611eb3565b60f81b81838151811061171f5761171f611ef5565b60200101906001600160f81b031916908160001a905350611741600a86611ee1565b94506116e1565b6117528383611879565b61175f600084848461177b565b6106105760405162461bcd60e51b81526004016104da90612248565b60006001600160a01b0384163b1561186e57604051630a85bd0160e11b81526001600160a01b0385169063150b7a02906117bf9033908990889088906004016122c9565b6020604051808303816000875af19250505080156117fa575060408051601f3d908101601f191682019092526117f791810190612306565b60015b611854573d808015611828576040519150601f19603f3d011682016040523d82523d6000602084013e61182d565b606091505b50805161184c5760405162461bcd60e51b81526004016104da90612248565b805181602001fd5b6001600160e01b031916630a85bd0160e11b149050610f75565b506001949350505050565b6001600160a01b0382166118cf5760405162461bcd60e51b815260206004820181905260248201527f4552433732313a206d696e7420746f20746865207a65726f206164647265737360448201526064016104da565b6000818152600260205260409020546001600160a01b0316156119345760405162461bcd60e51b815260206004820152601c60248201527f4552433732313a20746f6b656e20616c7265616479206d696e7465640000000060448201526064016104da565b6001600160a01b038216600090815260036020526040812080546001929061195d908490611eb3565b909155505060008181526002602052604080822080546001600160a01b0319166001600160a01b03861690811790915590518392907fddf252ad1be2c89b69c2b068fc378daa952ba7f163c4a11628f55a4df523b3ef908290a45050565b8280546119c790611e11565b90600052602060002090601f0160209004810192826119e95760008555611a2f565b82601f10611a0257805160ff1916838001178555611a2f565b82800160010185558215611a2f579182015b82811115611a2f578251825591602001919060010190611a14565b50611a3b929150611a3f565b5090565b5b80821115611a3b5760008155600101611a40565b6001600160e01b03198116811461078557600080fd5b600060208284031215611a7c57600080fd5b8135611a8781611a54565b9392505050565b60005b83811015611aa9578181015183820152602001611a91565b83811115610bb15750506000910152565b60008151808452611ad2816020860160208601611a8e565b601f01601f19169290920160200192915050565b602081526000611a876020830184611aba565b600060208284031215611b0b57600080fd5b5035919050565b80356001600160a01b0381168114611b2957600080fd5b919050565b60008060408385031215611b4157600080fd5b611b4a83611b12565b946020939093013593505050565b600080600060608486031215611b6d57600080fd5b611b7684611b12565b9250611b8460208501611b12565b9150604084013590509250925092565b85815284602082015283604082015282606082015260a060808201526000611bbf60a0830184611aba565b979650505050505050565b600060208284031215611bdc57600080fd5b611a8782611b12565b60008060208385031215611bf857600080fd5b823567ffffffffffffffff80821115611c1057600080fd5b818501915085601f830112611c2457600080fd5b813581811115611c3357600080fd5b866020828501011115611c4557600080fd5b60209290920196919550909350505050565b8215158152604060208201526000610f756040830184611aba565b60008060408385031215611c8557600080fd5b611c8e83611b12565b915060208301358015158114611ca357600080fd5b809150509250929050565b634e487b7160e01b600052604160045260246000fd5b60008060008060808587031215611cda57600080fd5b611ce385611b12565b9350611cf160208601611b12565b925060408501359150606085013567ffffffffffffffff80821115611d1557600080fd5b818701915087601f830112611d2957600080fd5b813581811115611d3b57611d3b611cae565b604051601f8201601f19908116603f01168101908382118183101715611d6357611d63611cae565b816040528281528a6020848701011115611d7c57600080fd5b82602086016020830137600060208483010152809550505050505092959194509250565b60008060408385031215611db357600080fd5b611dbc83611b12565b9150611dca60208401611b12565b90509250929050565b86815260c060208201526000611dec60c0830188611aba565b90508560408301528460608301528360808301528260a0830152979650505050505050565b600181811c90821680611e2557607f821691505b60208210811415611e4657634e487b7160e01b600052602260045260246000fd5b50919050565b60208082526031908201527f4552433732313a207472616e736665722063616c6c6572206973206e6f74206f6040820152701ddb995c881b9bdc88185c1c1c9bdd9959607a1b606082015260800190565b634e487b7160e01b600052601160045260246000fd5b60008219821115611ec657611ec6611e9d565b500190565b634e487b7160e01b600052601260045260246000fd5b600082611ef057611ef0611ecb565b500490565b634e487b7160e01b600052603260045260246000fd5b60008154611f1881611e11565b60018281168015611f305760018114611f4157611f70565b60ff19841687528287019450611f70565b8560005260208060002060005b85811015611f675781548a820152908401908201611f4e565b50505082870194505b5050505092915050565b6000610f75611f898386611f0b565b84611f0b565b600082821015611fa157611fa1611e9d565b500390565b60008151611fb8818560208601611a8e565b9290920192915050565b7f7b226e616d65223a2022596f7572204c6974746c6520456d6f6a6920467269658152631b99088b60e21b60208201527f226465736372697074696f6e223a20224b65657020796f7572207065742068616024820152651c1c1e48488b60d21b6044820152691134b6b0b3b2911d101160b11b604a8201526000855161204f816054850160208a01611a8e565b61088b60f21b6054918401918201526a22747261697473223a205b60a81b60568201527f7b2274726169745f74797065223a202248756e676572222c2276616c7565223a6061820152600160fd1b6081820152611bbf61214f61214161213b6121026120fc6120c1608288018d611fa6565b7f7d2c207b2274726169745f74797065223a2022456e726963686d656e74222c208152680113b30b63ab2911d160bd1b602082015260290190565b8a611fa6565b7f7d2c207b2274726169745f74797065223a202248617070696e657373222c2276815266030b63ab2911d160cd1b602082015260270190565b87611fa6565b617d5d60f01b815260020190565b607d60f81b815260010190565b6000825161216e818460208701611a8e565b9190910192915050565b60006121848285611f0b565b8351612194818360208801611a8e565b01949350505050565b86815260006020878184015286604084015285606084015260c06080840152600085546121c981611e11565b8060c087015260e06001808416600081146121eb57600181146122005761222e565b60ff198516898401526101008901955061222e565b8a6000528660002060005b858110156122265781548b820186015290830190880161220b565b8a0184019650505b505050505060a09390930193909352509695505050505050565b60208082526032908201527f4552433732313a207472616e7366657220746f206e6f6e20455243373231526560408201527131b2b4bb32b91034b6b83632b6b2b73a32b960711b606082015260800190565b60006000198214156122ae576122ae611e9d565b5060010190565b6000826122c4576122c4611ecb565b500690565b6001600160a01b03858116825284166020820152604081018390526080606082018190526000906122fc90830184611aba565b9695505050505050565b60006020828403121561231857600080fd5b8151611a8781611a5456fea164736f6c634300080a000a646174613a696d6167652f7376672b786d6c3b6261736536342c50484e325a79423462577875637a306e6148523063446f764c336433647935334d793576636d63764d6a41774d43397a646d636e494864705a48526f505363784d44416c4a79426f5a576c6e614851394a7a45774d43556e49485a705a586443623367394a7a41674d4341344d4441674f4441774a7a3438636d566a6443426d615778735053636a5a6d5a6d5a6d5a6d4a794233615752306144306e4f4441774a79426f5a576c6e614851394a7a67774d436376506a786b5a575a7a506a78795957527059577848636d466b61575675644342705a44306e59536367593367394a7a51774d43636759336b394a7a51774d436367636a306e4e5441754d53556e49476479595752705a5735305657357064484d394a33567a5a584a546347466a5a55397556584e6c4a7a3438633352766343416762325a6d63325630505363774a79427a644739774c574e76624739795053636a5a6d5a6d5a6d5a6d4a79382b50484e30623341674947396d5a6e4e6c6444306e4d536367633352766343316a62327876636a306e497a424652696376506a7776636d466b6157467352334a685a476c6c626e512b50484a685a476c6862456479595752705a57353049476c6b505364694a79426a6544306e4e4441774a79426a6554306e4e4441774a794279505363314d4334304a5363675a334a685a476c6c626e5256626d6c30637a306e64584e6c636c4e7759574e6c543235566332556e506a787a64473977494342765a6d5a7a5a5851394a7a416e49484e306233417459323973623349394a794e6d5a6d5a6d5a6d596e4c7a3438633352766343416762325a6d63325630505363784a79427a644739774c574e76624739795053636a4d455a474a79382b504339795957527059577848636d466b61575675644434384c32526c5a6e4d2b50484a6c593351675a6d6c736244306e64584a734b434e684b53636764326c6b644767394a7a67774d436367614756705a326830505363344d44416e4c7a34385a79426d615778734c57397759574e7064486b394a7a41754e53632b50484268644767675a6d6c736244306e64584a734b434e694b5363675a44306e54546b354f4334334944517a4f533479597a45754e7930794e693431494445754e7930314d693433494441754d5330334f433431544451774d53417a4f546b754f574d77494441674d4330774c6a45674d4330774c6a46734e5467334c6a59744d5445324c6a6c6a4c5455754d5330794e5334354c5445784c6a6b744e5445754d6930794d43347a4c5463314c6a684d4e4441774c6a6b674d7a6b354c6a646a4d434177494441744d433478494441744d4334786244557a4e79347a4c5449324e574d744d5445754e6930794d7934314c5449304c6a67744e4459754d69307a4f53347a4c5459334c6a6c4d4e4441774c6a67674d7a6b354c6a566a4d434177494441744d4334784c5441754d5330774c6a46734e4455774c6a51744d7a6b31597930784e79347a4c5445354c6a63744d7a55754f43307a4f4334794c5455314c6a55744e5455754e5777744d7a6b31494451314d433430597a41674d4330774c6a45674d4330774c6a45744d4334785444637a4d7934304c546b35597930794d5334334c5445304c6a55744e4451754e4330794e7934324c5459344c544d354c6a4e734c5449324e5341314d7a63754e474d77494441744d433478494441744d433478494442734d546b794c6a59744e5459334c6a526a4c5449304c6a59744f43347a4c5451354c6a6b744d5455754d5330334e5334344c5449774c6a4a4d4e4441774c6a49674d7a6b35597a41674d4330774c6a45674d4330774c6a45674d47777a4f5334794c5455354e793433597930794e6934314c5445754e7930314d6934334c5445754e7930334f4334314c5441754d55777a4f546b754f53417a4f546c6a4d4341774c5441754d5341774c5441754d534177544449344d6934354c5445344f433432597930794e533435494455754d5330314d533479494445784c6a6b744e7a55754f4341794d43347a624445354d693432494455324e793430597a41674d4330774c6a45674d4330774c6a45674d4777744d6a59314c54557a4e79347a597930794d793431494445784c6a59744e4459754d6941794e4334344c5459334c6a6b674d7a6b754d32777a4d7a49754f4341304f5467754d574d77494441744d433478494441744d433478494441754d5577304c6a51744e5445754d554d744d5455754d79307a4d7934354c544d7a4c6a67744d5455754d7930314d533478494451754e4777304e5441754e43417a4f54566a4d434177494441674d4334784c5441754d5341774c6a464d4c546b35494459324c6a5a6a4c5445304c6a55674d6a45754e7930794e793432494451304c6a51744d7a6b754d7941324f4777314d7a63754e4341794e6a566a4d434177494441674d433478494441674d433478624330314e6a63754e4330784f5449754e6d4d744f43347a494449304c6a59744d5455754d5341304f5334354c5449774c6a49674e7a55754f45777a4f546b674d7a6b354c6a686a4d434177494441674d433478494441674d433478624330314f5463754e79307a4f533479597930784c6a63674d6a59754e5330784c6a63674e5449754e7930774c6a45674e7a67754e55777a4f546b674e4441774c6a466a4d434177494441674d433478494441674d433478624330314f4463754e6941784d5459754f574d314c6a45674d6a55754f5341784d533435494455784c6a49674d6a41754d7941334e533434624455324e7934304c5445354d693432597a41674d434177494441754d534177494441754d5777744e544d334c6a4d674d6a5931597a45784c6a59674d6a4d754e5341794e433434494451324c6a49674d7a6b754d7941324e793435624451354f4334784c544d7a4d693434597a41674d434177494441754d5341774c6a45674d433478624330304e5441754e43417a4f54566a4d5463754d7941784f53343349444d314c6a67674d7a67754d6941314e533431494455314c6a56734d7a6b314c5451314d433430597a41674d4341774c6a45674d4341774c6a45674d433478544459324c6a59674f446b35597a49784c6a63674d5451754e5341304e433430494449334c6a59674e6a67674d7a6b754d3277794e6a55744e544d334c6a526a4d434177494441754d534177494441754d534177544449774e79347849446b324f43347a597a49304c6a59674f43347a494451354c6a6b674d5455754d5341334e533434494449774c6a4a4d4d7a6b354c6a67674e444178597a41674d4341774c6a45674d4341774c6a45674d4777744d7a6b754d6941314f5463754e324d794e693431494445754e7941314d693433494445754e7941334f433431494441754d5577304d4441754d5341304d44466a4d434177494441754d534177494441754d534177624445784e693435494455344e793432597a49314c6a6b744e533478494455784c6a49744d5445754f5341334e5334344c5449774c6a4e4d4e4441774c6a4d674e4441774c6a6c6a4d434177494441754d534177494441754d534177624449324e5341314d7a63754d324d794d7934314c5445784c6a59674e4459754d6930794e433434494459334c6a6b744d7a6b754d3077304d4441754e5341304d4441754f474d77494441674d433478494441674d4334784c5441754d57777a4f5455674e4455774c6a526a4d546b754e7930784e79347a49444d344c6a49744d7a55754f4341314e5334314c5455314c6a56734c5451314d4334304c544d354e574d77494441674d4330774c6a45674d4334784c5441754d5577344f546b674e7a4d7a4c6a526a4d5451754e5330794d533433494449334c6a59744e4451754e43417a4f53347a4c545934624330314d7a63754e4330794e6a566a4d434177494441744d433478494441744d433478624455324e793430494445354d693432597a67754d7930794e433432494445314c6a45744e446b754f5341794d4334794c5463314c6a684d4e444178494451774d433479597a41674d4341774c5441754d5341774c5441754d5577354f5467754e7941304d7a6b754d6e6f6e4c7a34384c32632b5048526c654851676544306e4e54416c4a794235505363314d43556e49474e7359584e7a5053646959584e6c4a79426b62323170626d46756443316959584e6c62476c755a54306e62576c6b5a47786c4a7942305a5868304c57467559326876636a306e62576c6b5a47786c4a79426d623235304c584e70656d55394a7a686c6253632b384a2b",
    "linkReferences": {}
  }
}